:1000000019C033C032C031C030C02FC02FC02DC086
:1000100053C02BC087C029C028C093C026C025C0AC
:1000200024C0CAC222C021C020C01FC01EC01DC023
:100030001CC01BC011241FBECFEFCDBFDFE3DEBF4E
:100040001EE3A0E0BEE3E4EBFDE102C005900D92EB
:10005000A036B107D9F72EE3A0E6BEE301C01D929A
:10006000A33BB207E1F787D09CCECACF1F920F9275
:100070000FB60F9211242F933F934F935F936F937B
:100080007F938F939F93AF93BF93EF93FF9373D21D
:1000900082E080934301FF91EF91BF91AF919F91D7
:1000A0008F917F916F915F914F913F912F910F9021
:1000B0000FBE0F901F9018951F920F920FB60F92C0
:1000C00011248F939F938091603E811105C02D9ADA
:1000D0002B9A289A499A4B9A9091633E891708F077
:1000E0002D989091643E891708F02B989091653E69
:1000F000891708F028989091663E891708F049986A
:100100009091673E891708F04B988F5F8093603E0F
:1001100081E080930B0A9F918F910F900FBE0F90FB
:100120001F9018951F920F920FB60F9211248F9364
:1001300080E180930B0A8F910F900FBE0F901F905C
:1001400018951F920F920FB60F9211248F939F93C1
:100150008091613E9091623E01968093613E9093C2
:10016000623E81E08093460A9F918F910F900FBE6F
:100170000F901F9018956ED28DD178942D9A4B9A2E
:100180002FE382E49FE0215080409040E1F700C0DF
:1001900000002B9A499A2FE382E49FE0215080408F
:1001A0009040E1F700C00000289A2FEB86EC9DE21A
:1001B000215080409040E1F700C0000028982FE7D0
:1001C0008AE196E0215080409040E1F700C00000B5
:1001D0002B9849982FE78AE196E021508040904083
:1001E000E1F700C000002D984B982FEB86EC9DE2C4
:1001F000215080409040E1F700C000004ED28EE0D8
:100200008093633E8093643E8093653E8093663E18
:100210008093673E512C612C812C312C992493942E
:10022000C0E0D0E000E810E090E8292E2EE0722E29
:1002300032E3E32EF12C44EFC42EDD24D39455E0B9
:10024000A52EB12C68EB462E552059F04092633E06
:100250004092643E4092653E4092663E4092673EC8
:1002600090C0611049C031100BC032DDB601D5DC41
:10027000892B31F42DDDB501D0DCC82F3324339424
:100280008091613E9091623EB701B3DC029708F025
:1002900078C0332009F475C08C2F90E0992091F03C
:1002A00021E02D0FED2FF0E0EA55F2463081FC0100
:1002B000ED59F14C308399249394283009F4912C12
:1002C000D22F5FC0D150ED2FF0E0EA55F2462081E9
:1002D000FC01ED59F14C2083D11153C07092633E63
:1002E0007092643E7092653E7092663E7092673E78
:1002F000312C9924939445C021E0621220C08BE4F4
:1003000088123EC080E090E0FC01ED59F14CC8132A
:1003100002C0208202C02EE0208301968530910524
:1003200099F7992029F0C43009F46CC0CF5F26C03A
:10033000C15099249394CC2309F1912C1FC082E0E1
:1003400068121FC096E989121BC0C2DCB80165DCC7
:100350008093633EBDDCB80160DC8093643EB8DC12
:10036000B8015BDC8093653EB3DCB80156DC80935A
:10037000663EAEDCB80151DC8093673E812C01C043
:100380008394CCD08091693E8130A9F580E090E0E3
:1003900004D187FF09C087EA91E60197F1F700C011
:1003A00000005524539427C0552029F191E0691687
:1003B00039F06916D0F022E0621631F0512C1BC0E2
:1003C000512C82E0682E17C07092633E7092643E9A
:1003D0007092653E7092663E7092673E512C612C21
:1003E00099249394C0E0D0E006C0512C6624639415
:1003F00099249394C0E087E893E10197F1F700C056
:10040000000022CF812C912CC3E0BBCFEEE8FEE3AD
:10041000808182608083089587FF02C081E007C0E9
:1004200086FD03C01092683E08958F708E5F8093A2
:10043000683E08958AE89EE3E4DA60E070E08DE4C7
:100440009EE34DDB60E070E08DE49EE367DB45E812
:100450005EE360E080E29EE3AEC1E091203EF09179
:10046000213E808187FF08C0E0918C3EF0918D3E57
:10047000808184608083089581E08093693E08953F
:100480009091410192FDFCCF90E080934A019093BE
:100490004B01089580E2F4DFE4E1F4E08081877F9E
:1004A00080838081887F84608083EEE8FEE3108211
:1004B0008CE19EE38183928386E19EE38383948330
:1004C0008EE09EE38583968382E19EE38783908717
:1004D00084E09EE3818792878AE09EE38387948706
:1004E0008BE49BE0858796878AE192E08787908BF3
:1004F0008CE092E0818B928B86E092E0838B948BF0
:10050000158A168A8DE292E0878B908FCF01CAD62A
:10051000C4D680938C3E90938D3E0895E0918C3E9E
:10052000F0918D3E808180FF0BC080E019D7811152
:1005300007C0E0918C3EF0918D3E80818E7F80835C
:10054000E0918C3EF0918D3E808181FF13C057D7A2
:10055000811102C05CD702C080E85EDFE0918C3E72
:10056000F0918D3E808182FD02C08D7F02C0897F27
:100570008160808308958091813E8F5F843118F47B
:100580008093813E08951092813E80918E3E8160DD
:1005900080938E3E84E190E003C126E0AC01249F6D
:1005A000C001259F900D1124E091243EF091253E3D
:1005B000E80FF91F808108951F920F920FB60F92D6
:1005C00011242F933F934F935F936F937F938F9358
:1005D0009F93AF93BF93EF93FF93E1DAFF91EF9176
:1005E000BF91AF919F918F917F916F915F914F914B
:1005F0003F912F910F900FBE0F901F90189582E0A2
:100600008093890080E0089540E068ED81E690E005
:1006100032D080E00895789480E00895E0E1F4E03D
:10062000808188608193E83184E0F807C9F7E0E3CE
:10063000F4E0808188608193E83384E0F807C9F7AB
:10064000E0E5F4E0808188608193E83584E0F80794
:10065000C9F70895E3DF259A2D98209A2898239AC0
:100660002B98419A4998439A4B98CEDF08D023D0D3
:10067000D2DF11D0C4CFFC0164BF408308958091C4
:1006800041018111FCCF81E88093400182E0809399
:10069000420180E0089580E00895E0E0FAE080E122
:1006A000818381E182878FEF90E086A397A381E029
:1006B000808380E00895E0E4FAE080E197E28487B7
:1006C000958781E0858383E0808380E00895CF92E1
:1006D000DF92FF920F931F93CF93DF93EC01AE81D4
:1006E000BF81EB01CC0FDD1FC60FD71FCA0FDB1F69
:1006F000FA80FC0144815581E6E0E69F9001E79F86
:10070000300D11248A01020F131FF8012281338159
:10071000F90121813281F80104811581201B310BFF
:10072000E8812E1B3109EC01EA81FB8100811181F6
:10073000FA0140E050E04017510739F146175707DA
:10074000F9F012968C911297F8121AC08081855890
:100750008230E8F0C480D58082819381EC01898168
:100760009A81C816D90660F48C199D09CC91D0E005
:10077000C817D90728F48C1B9D0B2817390738F0A8
:100780004F5F5F4F13963696D6CF80E001C081E071
:10079000DF91CF911F910F91FF90DF90CF9008953F
:1007A00020916A3E30916B3E820F931F80936A3E88
:1007B00090936B3E08950097D9F041155105C1F013
:1007C00026E0629FB0011124DC011496ED91FC91AA
:1007D0001597E60FF71F21E0208314968D919C91C9
:1007E0001597FC01E60FF71F4283538380E00895BD
:1007F0008BE008952F923F924F925F926F927F927B
:100800008F929F92AF92BF92CF92DF92EF92FF9220
:100810000F931F93CF93DF93009709F47BC3EC01F1
:10082000A12CB12C812C912C212CD12C33E0C32E66
:1008300045E8642E56E8752E67E0362E72E0472EA6
:10084000E8E05E2EEA81FB8180819181881699061D
:1008500008F0A3C17501EE0CFF1C0C811D810E0D6B
:100860001F1DD8018C91843009F4A1C038F4823066
:1008700001F108F049C0813059F088C1853809F488
:10088000C0C0863809F4F4C0873009F07FC135C193
:10089000D8011296ED91FC91139780818E7109F029
:1008A00067C14C928C819D81FC01EE0DFF1D518230
:1008B0005FC1F8012181222329F10280F381E02D1B
:1008C000253020F081819281D8010EC0D801149684
:1008D0008D919C911597418152818417950769F0FC
:1008E0004817590730F4019714968D939C931597E8
:1008F00004C00196F801848395832150D801119694
:100900002C9336C1F8012FC1D80114962D913C913A
:10091000159712968D919C911397DC0111964D912C
:100920005C9112972417350709F430C18E819F819D
:1009300042175307E0F4241B350BDC01AA0DBB1D45
:100940008C9190E0058002C0959587950A94E2F716
:1009500099272817390708F419C18481882309F4D5
:1009600015C1F8013082EA81FB81248119C0FC01A4
:10097000EA0DFB1D421B530B808190E0481759077D
:1009800008F404C18281882329F0B401CE019FDEDE
:100990008111FCC0E4E0D801EC93EA81FB81228163
:1009A0008C819D81FC01EE0DFF1D2183E1C0D801EA
:1009B00014962D913C9115971296ED91FC911397F9
:1009C000818192818217930708F4D6C0EE81FF815E
:1009D000EA0DFB1D821B930B208130E0281739079D
:1009E00008F0AEC08281882329F0B401CE016FDE09
:1009F0008111CCC0F8018181882309F467C081503E
:100A0000B6C0A881B981808513968C93EC81FD8155
:100A1000EE0DFF1D44815581A281B38111968D9108
:100A20009C91129784179507C0F0AE81BF81AA0DE3
:100A3000BB1D6C91262F30E011967C917F5F02C028
:100A4000359527957A95E2F7841B950B621B262F27
:100A500030E02817390708F497C07082EA81FB81DB
:100A600022818C819D81FC01EE0DFF1D218342C0FE
:100A7000D80114966D917C9115971296ED91FC9189
:100A80001397218132812617370758F411968C91DC
:100A90001197811102C0CC9277C08150F8018183F7
:100AA00073C0EE81FF81EA0DFB1D8081482F50E06D
:100AB00091819F5F02C0559547959A95E2F7261B55
:100AC000370B841B90E08217930760F4D8016C9277
:100AD000EA81FB8123818C819D81FC01EE0DFF1D4C
:100AE000218352C0F8018181811102C0C0824CC0B3
:100AF00081508183222423943BC0D80114962D91E8
:100B00003C91159712968D919C911397DC0111964B
:100B10008D919C9112978217930768F5281B390BCA
:100B2000AE81BF81AA0DBB1D8C9190E0058002C0F3
:100B3000959587950A94E2F799272817390718F4AD
:100B4000F801C0821AC0D80111968C9111978111B9
:100B50000CC081E08C938C819D81FC01EE0DFF1D0A
:100B60000280F381E02DC08211C08150F8018183A1
:100B7000DD24D3940BC0D801CC928C819D81FC01E3
:100B8000EE0DFF1D118202C022242394BFEF8B1AA9
:100B90009B0AE3E0AE0EB11C55CEE881F98180815D
:100BA00087FF23C040E050E020E030E0EA81FB8195
:100BB000808191812817390798F4EC81FD81E40F39
:100BC000F51FA281B3818C9180FD05C09081977F34
:100BD00011F081608C932F5F3F4F4A5F5F4FE6CFEC
:100BE000E881F98180818F778083D11007C0E88107
:100BF000F98121106FC080818E7F6EC0EA81FB81F8
:100C000081858823A1F3E881F981808180688083D0
:100C1000EA81FB818185813051F740E050E020E09E
:100C200030E096E0D92EEA81FB8160817181261740
:100C30003707E8F60C811D81FA01EE0FFF1FE00F68
:100C4000F11F8081982F977FA1F1853811F08330B3
:100C5000B1F5EE80FF80D701A40FB51F1296BC90AE
:100C6000BB2039F180E090E0C12C86179707F8F49B
:100C700028173907D1F0D89ED001D99EB00D112484
:100C8000A00FB11FAC91A43011F0A63871F4DC01B3
:100C9000AA0FBB1FA80FB91FAE0DBF1D1296AC91B6
:100CA000BA1203C0CB01CC24C3940196DECFC1108D
:100CB00006C00280F381E02D80818E7F05C0028016
:100CC000F381E02D8081816080832F5F3F4F4D5FF6
:100CD0005F4FA9CF80818160808380916A3E90912F
:100CE0006B3EE881F98121813281A90148535F4F30
:100CF0004817590738F4821B930BAA24A394A3E046
:100D0000BA2E44C08217930710F080E004C1821B02
:100D1000930B0197893C9105C0F3EFCF885C910953
:100D2000E881F9812181328128533F4F2183328329
:100D30002381211196C02481222311F02150248384
:100D4000E881F9812581222311F0215025838A80B1
:100D50009B80D40116962C91169721111BC08A8076
:100D60009B80F4012781211148C0EA81FB81238106
:100D7000222361F020E030E0A0E0B0E0EA81FB81D6
:100D800040815181A417B50708F46EC0893C9105D4
:100D900028F6BBCF08811981F80124812111DFCF0A
:100DA000ED90FC9060E070E040E050E04E155F0593
:100DB000F1F0EC81FD81E60FF71F2081233011F067
:100DC000283081F424813581C280D380D6011196E8
:100DD000CD90DC9012972C153D0520F42F5F3F4FEE
:100DE000248335834F5F5F4F6A5F7F4FDFCFF4010E
:100DF0002681D80114962C93B2CF08811981D8018D
:100E000015962C912111B1CFE080F18060E070E067
:100E100040E050E04E155F05F1F0EC81FD81E60FFA
:100E2000F71F2081233011F0283081F4248135818F
:100E3000C280D380D6011196CD90DC901297C21655
:100E4000D30620F421503109248335834F5F5F4F4F
:100E50006A5F7F4FDFCFF4012781D80115962C936D
:100E600084CF2150238381CFA901440F551FEC81EA
:100E7000FD81E40FF51F6081653809F047C061818D
:100E8000662319F06150618341C0A0826C817D812D
:100E9000FB01E40FF51F0280F381E02DB082EE81AB
:100EA000FF81E20FF31FD280DD2081F140E050E0AE
:100EB00000E010E0EA81FB8160817181061717076D
:100EC00028F5EE81FF81E40FF51F6281D61219C06B
:100ED000BA01660F771FEC81FD814F01860E971EC8
:100EE000F401E280F380F701F080F0FE0AC0F40123
:100EF000A082EC81FD81E60FF71F0280F381E02DD7
:100F0000B0820F5F1F4F4D5F5F4FD4CF11962D5FA3
:100F10003F4F34CF8BE0DF91CF911F910F91FF9026
:100F2000EF90DF90CF90BF90AF909F908F907F9089
:100F30006F905F904F903F902F9008952F923F9227
:100F40004F925F926F927F928F929F92AF92BF92D9
:100F5000CF92DF92EF92FF920F931F93CF93DF9385
:100F6000CDB7DEB72C97CDBFDEBF2C01009709F4BB
:100F700063C1DC0112962D903C901397F1017180B2
:100F8000ED91FC916180D10116968C911697E72C1A
:100F9000F12CEB82FC82262D30E0882309F4A9C0D5
:100FA0008C90912C5701AA0CBB1C6901CC0CDD1C48
:100FB000E12CF12C40E050E000E010E008151905AC
:100FC00048F5848195818E0D9F1DDC0111966D91F0
:100FD0007C911297828193818C0D9D1DDC018D91F6
:100FE0009C918617970728F4DB01A81BB90BCD014C
:100FF00005C06817790730F4861B970B4817590707
:1010000008F4AC010F5F1F4FB5E0EB0EF11CCA0CEA
:10101000DB1CD4CFD10117968C91682F70E0641738
:10102000750708F057C00680F781E02DE20FF31F27
:1010300080818F5F8083F20140815181A281B381E1
:10104000FA01818146815781FA01E80FF11D9081F3
:1010500018968C91189798134CC014960D911C916A
:101060001597D801A20FB31F8C91882311F08150DE
:1010700001C08FE0F80161E070E040E050E0EB80FB
:10108000FC804E155F0560F44217530729F09081EC
:10109000981302C060E070E04F5F5F4F3196EFCF72
:1010A000672B19F38C9380E090E0D2011296ED91BA
:1010B000FC911397418150E084179507D0F4D20139
:1010C000ED91FC910680F781E02DE80FF91F108269
:1010D0000196EBCF869590E04817590750F40680AB
:1010E000F781E02DE20FF31F8081882311F08150FA
:1010F0008083F2010280F381E02DE983FA83EB80A3
:10110000FC80EE0CFF1CEB82FC82B901660F771F9E
:101110006D837E83D72CD694D39440E050E020E0BA
:1011200030E0E12CF12C8D2D90E08F839887A98100
:10113000BA818C9190E0E816F90608F068C0D201F7
:10114000ED91FC91A481B581BD01620F731F6B8786
:101150007C87DB018C918C7109F04FC011966D91E9
:101160007C91129782819381840F951FED81FE817E
:10117000E80FF91F60837183A12CB12CC12CC71417
:10118000C0F5FC01EC0DF11DEC0DF11D89879A876E
:1011900099249394812C312C7314C9F0C31479F0E1
:1011A000A985BA850D911C91608171810617170779
:1011B00011F4939404C00617170708F4839433942A
:1011C00069857A856E5F7F4F69877A87E5CF9D1441
:1011D00058F48D1460F4692D70E0680D711DAF81B5
:1011E000B8856A177B071CF0A080B180C72CC39418
:1011F000C6CFEB85FC85A182B282FFEFEF1AFF0A12
:101200002B5F3F4F6B817C81460F571F90CF6394BC
:10121000671408F0612CE981FA81A281B38184818D
:101220009581FC01E60DF11D80818C93D201ED9139
:10123000FC91618280E001C08BE02C96CDBFDEBFC7
:10124000DF91CF911F910F91FF90EF90DF90CF90A2
:10125000BF90AF909F908F907F906F905F904F90D6
:101260003F902F90089595E090936E3EE091AD3EB3
:10127000F091AE3E0188F289E02D309709F0099493
:10128000FFCFE091AD3EF091AE3E0388F489E02DB2
:10129000309709F0099480E4E6CF8091AD3E9091BB
:1012A000AE3E0895CF938093AD3E9093AE3E809135
:1012B0006E3E853039F0823028F080916C3E882374
:1012C00071F140C010926C3EC0E0A091AD3EB09173
:1012D000AE3E8C2F90E0880F991F1196ED91FC91F6
:1012E0001297E80FF91F0190F081E02D309729F354
:1012F00017962D913C911897D901A80FB91F8D9180
:101300009C910995882329F080916C3E8F5F809392
:101310006C3ECF5F80916C3E8823B9F2CECF82E0E5
:1013200080936E3EE091AD3EF091AE3E0784F08931
:10133000E02D309711F0099508C085E080936E3E4E
:1013400081E001C08F5F80936C3E80916C3E88236A
:1013500029F010926C3E80E8CF9185CFCF9108950F
:101360001F93CF93DF93182FA091AD3EB091AE3E67
:1013700015962D913C911697D0E0F901ED0FF11DD6
:10138000ED0FF11D80819181892B11F0DF5FF5CF89
:1013900053968D919C915497892B49F1812F90E020
:1013A000880F991FF901E80FF91F0190F081E02DD6
:1013B0003097E9F01B962D913C911C97D901A80F0D
:1013C000B91F8D919C91009791F061E479E00995A6
:1013D000C82F811106C083E080936E3E10926D3E4F
:1013E00003C082E080936E3E1D1720F001C0C2E072
:1013F00082E839DF8C2FDF91CF911F910895E09122
:10140000AD3EF091AE3E0584F685E02D09941F9324
:10141000CF93DF931F92CDB7DEB71982E091AD3E37
:10142000F091AE3E0588F689E02D309749F082E0D4
:1014300080936E3ECE010196099583E080936E3EC7
:1014400080916C3E81112CC01981111129C084E05A
:1014500080936E3EA091AD3EB091AE3E80916D3EC8
:1014600090E0880F991F1396ED91FC911497E80F67
:10147000F91F0190F081E02D19962D913C911A975A
:10148000309781F0D901A80FB91F8D919C910995D2
:1014900081113DC080916D3E8F5F80936D3EDACFAC
:1014A00010E03CC010926D3EF901E10FF11DE10F1B
:1014B000F11D0190F081E02D309759F00190F081FD
:1014C000E02D808187FF03C09C9194609C931F5FF7
:1014D000EBCF10936D3E82E080936E3E5796ED9178
:1014E000FC915897309711F0099505C080916C3E9A
:1014F0008F5F80936C3E10E080916C3E882371F08A
:1015000010926C3E80916D3E8064ADDE07C080918C
:101510006C3E8F5F80936C3E13E0EECF812F0F9077
:10152000DF91CF911F9108958091723E9091733E0B
:10153000A091AF3EB091B03EED91FC9111974081EA
:10154000518125E0289FB001299F700D112420E0D2
:1015500030E084179507A8F41496ED91FC91159747
:10156000E20FF31FE60FF71FE0812B5F3F4FE0FD17
:1015700002C00196EECF8093723E9093733E80E05E
:1015800008951092723E1092733E81E00895BC015E
:10159000E091AF3EF091B03E86E0869F9001879F3C
:1015A000300D1124A281B381A20FB31F11968C912B
:1015B00080932A06A281B381A20FB31F8C918093DE
:1015C000260695E0969FA001979F500D1124A481B7
:1015D000B581A40FB51F13968C9180931A06A48130
:1015E000B581A40FB51F14968C9180931B06A4811E
:1015F000B581A40FB51F8C9181FD9C938481958149
:10160000DC01A40FB51F8C918C7169F4A281B381A8
:10161000A20FB31F1496AC91A295AF70B0E0A25583
:10162000B2468C9101C08FE380931C06A281B381E6
:10163000A20FB31F12968C918B3110F48C5F01C0F6
:101640008FE180930506A281B381A20FB31F159687
:101650008C9180930106A281B381A20FB31F1396D0
:101660008C9182958F708093190682819381FC0101
:10167000E20FF31F83818F70806180930206809157
:10168000180683608093180681E88093000681E045
:101690008093080608953F924F925F926F927F92D7
:1016A0008F929F92AF92BF92CF92DF92EF92FF9272
:1016B0000F931F93CF93DF938091713E882309F49A
:1016C00048C1A091AF3EB091B03EC090B13ED09025
:1016D000B23E00E010E060E070E0E12CF12C80E030
:1016E00033243394D1E84D2E88248A9499249394FA
:1016F0006D907C901197F30120813181E216F30601
:1017000008F023C1E601299139916E011496ED91FB
:10171000FC911597E60FF71F40814C7150E05695EC
:101720004795569547954115510521F04130510592
:10173000B9F002C11296CD91DC911397C00FD11F61
:101740004C814F709D81491710F4941B01C090E0AB
:1017500002C0369527959A95E2F721833283EDC032
:1017600012964D915C911397400F511FEA010D8025
:1017700002C0369527950A94E2F721833283A3802D
:10178000B4802115D2E03D0720F02F5F314091E079
:1017900005C0A401421B530B9A0190E0E3015A805B
:1017A000D0E45D1205C036952795992319F009C03C
:1017B000992339F04FEFA416B40631F440828EE03D
:1017C00007C07724739401C0712C2A30310590F43E
:1017D0001496ED91FC911597E60FF71F908197FFF6
:1017E00030821496ED91FC911597E60FF71FA382B6
:1017F000B482A3C0E501CD2FDD27C295CF709C2F09
:10180000A50144275F70652EA501407F552752959D
:1018100042954F7045275F7045275A2D5F70A52E62
:10182000C43030F09370D695C795D695C7959C0F68
:1018300071103CC050E8550D523010F456E007C00E
:1018400053E005C0951768F49F5F2F5C3109203D78
:101850003105C0F706C0CFE06C1649F063942551FE
:10186000310926313105B8F7DFE06D120EC095174A
:1018700020F49F5FD5E06D2E08C0CFE06C2E05C030
:101880004F3049F04F5F2250310923303105C0F706
:101890004F3009F065C04FE0641681F1639445E074
:1018A0005FC0992361F091502F5C3109203D3105D3
:1018B000C0F705C0662041F06A94255131092631F0
:1018C0003105C0F761100DC0992321F091505AE005
:1018D000652E07C0612C05C0442341F041502250C1
:1018E000310923303105C0F7411110C06620E9F1FC
:1018F0006A944AE023303105C8F608C059132FC056
:101900002330310540F14FE0A42E4FE0943018F021
:10191000990F990F9950C0E14C9FA00111245629AD
:101920004A29C92FD0E0DC2FCC27D295D07F4C2B71
:101930005D2B4383548301C0FFCFDFEFED1AFD0A17
:101940006B5F7F4F0A5F1F4FD3CE92E09093713E43
:101950000EC083E00CC04FE02FE0A22ED7CF4FE0A7
:101960002330310508F073CFD1CF40E0CFCFDF91E6
:10197000CF911F910F91FF90EF90DF90CF90BF908C
:10198000AF909F908F907F906F905F904F903F901F
:101990000895CF93DC01892B79F1ED91FC9111979A
:1019A0006081718140E050E020E030E090E0261757
:1019B000370779F01296ED91FC911397E40FF51F1C
:1019C000C08181818C2B982B2F5F3F4F4A5F5F4FE7
:1019D000EECF992399F08091713E811106C09093CA
:1019E000220681E08093713E05C080912206982BEB
:1019F0009093220680E003C08BE001C082E0CF918B
:101A00000895009731F08093B13E9093B23E80E00C
:101A100008958BE008956115710591F1009781F1AA
:101A20002091713E222371F1243071F18093AF3EF9
:101A30009093B03E60936F3E7093703E20EC209385
:101A40001806DC01ED91FC912281203421F42091D3
:101A50001806206205C0203841F42091180628623B
:101A60002093180610921E0613C0213879F4209195
:101A7000180628622093180626E820931E0608C040
:101A80008BE0089583E0089581E0089582E0089551
:101A900010920006DC01ED91FC918481803108F008
:101AA00080E18093030681E080930B0680930A0611
:101AB00080935E3E1092723E1092733E35DD81112E
:101AC0000AC084E08093713E8091723E9091733E93
:101AD0005EDD80E0089582E08093713E0895009776
:101AE000C9F0DC01ED91FC9111972081318126171D
:101AF000370790F045E0469F9001479F300D112435
:101B00001496ED91FC911597E20FF31F81E080830D
:101B100080E008958BE0089582E00895FC01892B10
:101B2000D1F1A081B1818D919C9111978617970772
:101B3000A0F112969C910480F581E02D903459F427
:101B400085E0869FD001879FB00D1124AE0FBF1F87
:101B500084E392E00DC09058923080F485E0869F37
:101B6000D001879FB00D1124AE0FBF1F87E695E00F
:101B700013968D939C93149780E001C082E095E0CA
:101B8000969F9001979F300D1124E20FF31F9081D3
:101B90009260908308958BE0089582E008951092FA
:101BA000000640911006509111068091723E90916E
:101BB000733E9C01220F331FE091B13EF091B23E83
:101BC000E20FF31F4083518301968093723E9093FE
:101BD000733EAADC811108C084E08093713E80913D
:101BE000723E9091733ED3CCE0916F3EF091703E87
:101BF0000994AA1BBB1B51E107C0AA1FBB1FA61754
:101C0000B70710F0A61BB70B881F991F5A95A9F7A5
:101C100080959095BC01CD01089597FB072E16F491
:101C2000009406D077FD08D0E4DF07FC05D03EF431
:101C3000909581959F4F0895709561957F4F089578
:101C40008F929F92AF92BF92CF92DF92EF92FF92CC
:101C5000CF93DF93EC01688179818A819B81611543
:101C600071058105910521F464E279ED8BE597E03A
:101C70002DE133EF41E050E03AD049015A019B0198
:101C8000AC01A7EAB1E44FD06B017C01ACEEB4EF3C
:101C9000A501940154D0DC01CB018C0D9D1DAE1D1E
:101CA000BF1DB7FF03C00197A109B048888399837E
:101CB000AA83BB839F77DF91CF91FF90EF90DF9056
:101CC000CF90BF90AF909F908F900895B9DF089507
:101CD00080E09EE3B5DF0895A0E0B0E08093003E91
:101CE0009093013EA093023EB093033E0895052ECB
:101CF00097FB16F400940FD057FD05D024D007FCB5
:101D000002D046F408C050954095309521953F4F3C
:101D10004F4F5F4F089590958095709561957F4FD7
:101D20008F4F9F4F089531D0A59F900DB49F900D78
:101D3000A49F800D911D11240895B7FFF4CFF3DF08
:101D4000821B930B0895A1E21A2EAA1BBB1BFD0157
:101D50000DC0AA1FBB1FEE1FFF1FA217B307E4078A
:101D6000F50720F0A21BB30BE40BF50B661F771FE2
:101D7000881F991F1A9469F76095709580959095C2
:101D80009B01AC01BD01CF010895A29FB001B39F9B
:101D9000C001A39F01D0B29F700D811D1124911D20
:061DA0000895F894FFCF46
:0E1DA6001E2B3B4E6689C4FF3F1C0B0503013C
:101DB40001000000353E203E00004D3E00000B0DAA
:101DC40000004D3E00009E07FA030000C90C00000D
:101DD4007B3E2B3EA73E283E140100010004000573
:101DE4000014051401393E413E0000753E853E82D3
:101DF4003E01035D3E4A3E010F06000102593E5377
:101E04003E853E0001000200040100803000010014
:00000001FF
